{
  "_format": "hh-sol-artifact-1",
  "contractName": "CrocQuery",
  "sourceName": "contracts/lens/CrocQuery.sol",
  "abi": [
    {
      "inputs": [
        {
          "internalType": "address",
          "name": "dex",
          "type": "address"
        }
      ],
      "stateMutability": "nonpayable",
      "type": "constructor"
    },
    {
      "inputs": [],
      "name": "dex_",
      "outputs": [
        {
          "internalType": "address",
          "name": "",
          "type": "address"
        }
      ],
      "stateMutability": "view",
      "type": "function"
    },
    {
      "inputs": [
        {
          "internalType": "address",
          "name": "owner",
          "type": "address"
        },
        {
          "internalType": "address",
          "name": "base",
          "type": "address"
        },
        {
          "internalType": "address",
          "name": "quote",
          "type": "address"
        },
        {
          "internalType": "uint256",
          "name": "poolIdx",
          "type": "uint256"
        }
      ],
      "name": "queryAmbientPosition",
      "outputs": [
        {
          "internalType": "uint128",
          "name": "seeds",
          "type": "uint128"
        },
        {
          "internalType": "uint32",
          "name": "timestamp",
          "type": "uint32"
        }
      ],
      "stateMutability": "view",
      "type": "function"
    },
    {
      "inputs": [
        {
          "internalType": "address",
          "name": "owner",
          "type": "address"
        },
        {
          "internalType": "address",
          "name": "base",
          "type": "address"
        },
        {
          "internalType": "address",
          "name": "quote",
          "type": "address"
        },
        {
          "internalType": "uint256",
          "name": "poolIdx",
          "type": "uint256"
        },
        {
          "internalType": "int24",
          "name": "lowerTick",
          "type": "int24"
        },
        {
          "internalType": "int24",
          "name": "upperTick",
          "type": "int24"
        }
      ],
      "name": "queryConcRewards",
      "outputs": [
        {
          "internalType": "uint128",
          "name": "",
          "type": "uint128"
        }
      ],
      "stateMutability": "view",
      "type": "function"
    },
    {
      "inputs": [
        {
          "internalType": "address",
          "name": "base",
          "type": "address"
        },
        {
          "internalType": "address",
          "name": "quote",
          "type": "address"
        },
        {
          "internalType": "uint256",
          "name": "poolIdx",
          "type": "uint256"
        }
      ],
      "name": "queryCurve",
      "outputs": [
        {
          "components": [
            {
              "internalType": "uint128",
              "name": "priceRoot_",
              "type": "uint128"
            },
            {
              "internalType": "uint128",
              "name": "ambientSeeds_",
              "type": "uint128"
            },
            {
              "internalType": "uint128",
              "name": "concLiq_",
              "type": "uint128"
            },
            {
              "internalType": "uint64",
              "name": "seedDeflator_",
              "type": "uint64"
            },
            {
              "internalType": "uint64",
              "name": "concGrowth_",
              "type": "uint64"
            }
          ],
          "internalType": "struct CurveMath.CurveState",
          "name": "curve",
          "type": "tuple"
        }
      ],
      "stateMutability": "view",
      "type": "function"
    },
    {
      "inputs": [
        {
          "internalType": "address",
          "name": "base",
          "type": "address"
        },
        {
          "internalType": "address",
          "name": "quote",
          "type": "address"
        },
        {
          "internalType": "uint256",
          "name": "poolIdx",
          "type": "uint256"
        },
        {
          "internalType": "bool",
          "name": "isBid",
          "type": "bool"
        },
        {
          "internalType": "int24",
          "name": "tick",
          "type": "int24"
        }
      ],
      "name": "queryKnockoutMerkle",
      "outputs": [
        {
          "internalType": "uint160",
          "name": "root",
          "type": "uint160"
        },
        {
          "internalType": "uint32",
          "name": "pivot",
          "type": "uint32"
        },
        {
          "internalType": "uint64",
          "name": "fee",
          "type": "uint64"
        }
      ],
      "stateMutability": "view",
      "type": "function"
    },
    {
      "inputs": [
        {
          "internalType": "address",
          "name": "base",
          "type": "address"
        },
        {
          "internalType": "address",
          "name": "quote",
          "type": "address"
        },
        {
          "internalType": "uint256",
          "name": "poolIdx",
          "type": "uint256"
        },
        {
          "internalType": "bool",
          "name": "isBid",
          "type": "bool"
        },
        {
          "internalType": "int24",
          "name": "tick",
          "type": "int24"
        }
      ],
      "name": "queryKnockoutPivot",
      "outputs": [
        {
          "internalType": "uint96",
          "name": "lots",
          "type": "uint96"
        },
        {
          "internalType": "uint32",
          "name": "pivot",
          "type": "uint32"
        },
        {
          "internalType": "uint16",
          "name": "range",
          "type": "uint16"
        }
      ],
      "stateMutability": "view",
      "type": "function"
    },
    {
      "inputs": [
        {
          "internalType": "address",
          "name": "owner",
          "type": "address"
        },
        {
          "internalType": "address",
          "name": "base",
          "type": "address"
        },
        {
          "internalType": "address",
          "name": "quote",
          "type": "address"
        },
        {
          "internalType": "uint256",
          "name": "poolIdx",
          "type": "uint256"
        },
        {
          "internalType": "uint32",
          "name": "pivot",
          "type": "uint32"
        },
        {
          "internalType": "bool",
          "name": "isBid",
          "type": "bool"
        },
        {
          "internalType": "int24",
          "name": "lowerTick",
          "type": "int24"
        },
        {
          "internalType": "int24",
          "name": "upperTick",
          "type": "int24"
        }
      ],
      "name": "queryKnockoutPos",
      "outputs": [
        {
          "internalType": "uint96",
          "name": "lots",
          "type": "uint96"
        },
        {
          "internalType": "uint64",
          "name": "mileage",
          "type": "uint64"
        },
        {
          "internalType": "uint32",
          "name": "timestamp",
          "type": "uint32"
        }
      ],
      "stateMutability": "view",
      "type": "function"
    },
    {
      "inputs": [
        {
          "internalType": "address",
          "name": "base",
          "type": "address"
        },
        {
          "internalType": "address",
          "name": "quote",
          "type": "address"
        },
        {
          "internalType": "uint256",
          "name": "poolIdx",
          "type": "uint256"
        },
        {
          "internalType": "int24",
          "name": "tick",
          "type": "int24"
        }
      ],
      "name": "queryLevel",
      "outputs": [
        {
          "internalType": "uint96",
          "name": "bidLots",
          "type": "uint96"
        },
        {
          "internalType": "uint96",
          "name": "askLots",
          "type": "uint96"
        },
        {
          "internalType": "uint64",
          "name": "odometer",
          "type": "uint64"
        }
      ],
      "stateMutability": "view",
      "type": "function"
    },
    {
      "inputs": [
        {
          "internalType": "address",
          "name": "base",
          "type": "address"
        },
        {
          "internalType": "address",
          "name": "quote",
          "type": "address"
        },
        {
          "internalType": "uint256",
          "name": "poolIdx",
          "type": "uint256"
        }
      ],
      "name": "queryLiquidity",
      "outputs": [
        {
          "internalType": "uint128",
          "name": "",
          "type": "uint128"
        }
      ],
      "stateMutability": "view",
      "type": "function"
    },
    {
      "inputs": [
        {
          "internalType": "address",
          "name": "base",
          "type": "address"
        },
        {
          "internalType": "address",
          "name": "quote",
          "type": "address"
        },
        {
          "internalType": "uint256",
          "name": "poolIdx",
          "type": "uint256"
        }
      ],
      "name": "queryPrice",
      "outputs": [
        {
          "internalType": "uint128",
          "name": "",
          "type": "uint128"
        }
      ],
      "stateMutability": "view",
      "type": "function"
    },
    {
      "inputs": [
        {
          "internalType": "address",
          "name": "token",
          "type": "address"
        }
      ],
      "name": "queryProtocolAccum",
      "outputs": [
        {
          "internalType": "uint128",
          "name": "",
          "type": "uint128"
        }
      ],
      "stateMutability": "view",
      "type": "function"
    },
    {
      "inputs": [
        {
          "internalType": "address",
          "name": "owner",
          "type": "address"
        },
        {
          "internalType": "address",
          "name": "base",
          "type": "address"
        },
        {
          "internalType": "address",
          "name": "quote",
          "type": "address"
        },
        {
          "internalType": "uint256",
          "name": "poolIdx",
          "type": "uint256"
        },
        {
          "internalType": "int24",
          "name": "lowerTick",
          "type": "int24"
        },
        {
          "internalType": "int24",
          "name": "upperTick",
          "type": "int24"
        }
      ],
      "name": "queryRangePosition",
      "outputs": [
        {
          "internalType": "uint128",
          "name": "liq",
          "type": "uint128"
        },
        {
          "internalType": "uint64",
          "name": "fee",
          "type": "uint64"
        },
        {
          "internalType": "uint32",
          "name": "timestamp",
          "type": "uint32"
        },
        {
          "internalType": "bool",
          "name": "atomic",
          "type": "bool"
        }
      ],
      "stateMutability": "view",
      "type": "function"
    },
    {
      "inputs": [
        {
          "internalType": "address",
          "name": "owner",
          "type": "address"
        },
        {
          "internalType": "address",
          "name": "token",
          "type": "address"
        }
      ],
      "name": "querySurplus",
      "outputs": [
        {
          "internalType": "uint128",
          "name": "surplus",
          "type": "uint128"
        }
      ],
      "stateMutability": "view",
      "type": "function"
    },
    {
      "inputs": [
        {
          "internalType": "address",
          "name": "owner",
          "type": "address"
        },
        {
          "internalType": "address",
          "name": "tracker",
          "type": "address"
        },
        {
          "internalType": "uint256",
          "name": "salt",
          "type": "uint256"
        }
      ],
      "name": "queryVirtual",
      "outputs": [
        {
          "internalType": "uint128",
          "name": "surplus",
          "type": "uint128"
        }
      ],
      "stateMutability": "view",
      "type": "function"
    }
  ],
  "bytecode": "0x608060405234801561001057600080fd5b506040516120a83803806120a883398101604081905261002f91610054565b600080546001600160a01b0319166001600160a01b0392909216919091179055610082565b600060208284031215610065578081fd5b81516001600160a01b038116811461007b578182fd5b9392505050565b612017806100916000396000f3fe608060405234801561001057600080fd5b50600436106100ea5760003560e01c80637f44601a1161008c578063992236c511610066578063992236c51461034e578063ab0a9898146103aa578063ed8f58f4146103fe578063f8c7efa71461041157600080fd5b80637f44601a1461023b57806387834a0e146102935780638e56c1c1146102d857600080fd5b8063391d582f116100c8578063391d582f146101b65780633dccd7d71461020257806356bf0f5b146102155780636756e9b81461022857600080fd5b806310fc74f4146100ef578063338adc671461013a578063340bfa121461016e575b600080fd5b6101026100fd366004611eb0565b610424565b604080516bffffffffffffffffffffffff909416845263ffffffff909216602084015261ffff16908201526060015b60405180910390f35b61014d610148366004611e75565b610574565b6040516fffffffffffffffffffffffffffffffff9091168152602001610131565b61018161017c366004611f0d565b610591565b604080516bffffffffffffffffffffffff948516815293909216602084015267ffffffffffffffff1690820152606001610131565b6101c96101c4366004611ddc565b61070b565b604080516bffffffffffffffffffffffff909416845267ffffffffffffffff909216602084015263ffffffff1690820152606001610131565b61014d610210366004611d70565b610768565b61014d610223366004611cf4565b610873565b61014d610236366004611e75565b6109db565b61024e610249366004611d26565b610a3e565b604080516fffffffffffffffffffffffffffffffff909716875263ffffffff9095166020870152938501929092526060840152608083015260a082015260c001610131565b6000546102b39073ffffffffffffffffffffffffffffffffffffffff1681565b60405173ffffffffffffffffffffffffffffffffffffffff9091168152602001610131565b6102eb6102e6366004611e75565b610bec565b6040805182516fffffffffffffffffffffffffffffffff908116825260208085015182169083015283830151169181019190915260608083015167ffffffffffffffff90811691830191909152608092830151169181019190915260a001610131565b61036161035c366004611d70565b610e0a565b604080516fffffffffffffffffffffffffffffffff909516855267ffffffffffffffff909316602085015263ffffffff9091169183019190915215156060820152608001610131565b6103bd6103b8366004611eb0565b610fc9565b6040805173ffffffffffffffffffffffffffffffffffffffff909416845263ffffffff909216602084015267ffffffffffffffff1690820152606001610131565b61014d61040c366004611cda565b611121565b61014d61041f366004611e75565b611238565b60008060008061043589898961124e565b905060006104448288886112dc565b905060008162010003604051602001610467929190918252602082015260400190565b604080518083037fffffffffffffffffffffffffffffffffffffffffffffffffffffffffffffffe0018152908290528051602090910120600080547f02ce8af3000000000000000000000000000000000000000000000000000000008452600484018390529193509173ffffffffffffffffffffffffffffffffffffffff909116906302ce8af39060240160206040518083038186803b15801561050a57600080fd5b505afa15801561051e573d6000803e3d6000fd5b505050506040513d601f19601f820116820180604052508101906105429190611f59565b6bffffffffffffffffffffffff81169d63ffffffff606083901c169d5060809190911c9b509950505050505050505050565b6000610589610584858585610bec565b611307565b949350505050565b6000806000806105a288888861124e565b9050600081866040516020016105c892919091825260020b60e81b602082015260230190565b60405160208183030381529060405280519060200120905060008162010002604051602001610601929190918252602082015260400190565b604080518083037fffffffffffffffffffffffffffffffffffffffffffffffffffffffffffffffe0018152908290528051602090910120600080547f02ce8af3000000000000000000000000000000000000000000000000000000008452600484018390529193509173ffffffffffffffffffffffffffffffffffffffff909116906302ce8af39060240160206040518083038186803b1580156106a457600080fd5b505afa1580156106b8573d6000803e3d6000fd5b505050506040513d601f19601f820116820180604052508101906106dc9190611f59565b6bffffffffffffffffffffffff8181169d606083901c9091169c5060c09190911c9a5098505050505050505050565b60008060008061071c8b8b8b61124e565b604080516060810182528915158152600289810b810b602083015288810b900b9181019190915290915061075281838f8c611333565b9450945094505050985098509895505050505050565b600080600061077b898989898989610e0a565b505091509150600061078f89898989610591565b9250505060006107a18a8a8a89610591565b9250505060006107b28b8b8b610bec565b905060006107c18c8c8c610bec565b60800151905060006107d683600001516114ce565b905060008160020b8b60020b13156107f7576107f28684611f89565b6107f9565b855b905060008260020b8b60020b131561081a576108158685611f89565b61081c565b855b9050818103889003600061084c6108338c84611821565b71ffffffffffffffffffffffffffffffffffff1661184c565b905061085c818860600151611884565b9b5050505050505050505050509695505050505050565b60008083836040516020016108ab92919073ffffffffffffffffffffffffffffffffffffffff92831681529116602082015260400190565b604051602081830303815290604052805190602001209050600081620100106040516020016108e4929190918252602082015260400190565b604080518083037fffffffffffffffffffffffffffffffffffffffffffffffffffffffffffffffe0018152908290528051602090910120600080547f02ce8af3000000000000000000000000000000000000000000000000000000008452600484018390529193509173ffffffffffffffffffffffffffffffffffffffff909116906302ce8af39060240160206040518083038186803b15801561098757600080fd5b505afa15801561099b573d6000803e3d6000fd5b505050506040513d601f19601f820116820180604052508101906109bf9190611f59565b6fffffffffffffffffffffffffffffffff169695505050505050565b600080610a2984846040805173ffffffffffffffffffffffffffffffffffffffff93841660208083019190915281830193909352815180820383018152606090910190915280519101201690565b9050610a358582610873565b95945050505050565b600080600080600080610a5289898961124e565b6040517fffffffffffffffffffffffffffffffffffffffff00000000000000000000000060608d901b16602082015260348101829052909450605401604080517fffffffffffffffffffffffffffffffffffffffffffffffffffffffffffffffe081840301815282825280516020918201209083018190526201000e918301919091529350606001604080518083037fffffffffffffffffffffffffffffffffffffffffffffffffffffffffffffffe00181529082905280516020909101206000547f02ce8af30000000000000000000000000000000000000000000000000000000083526004830182905290935073ffffffffffffffffffffffffffffffffffffffff16906302ce8af39060240160206040518083038186803b158015610b7957600080fd5b505afa158015610b8d573d6000803e3d6000fd5b505050506040513d601f19601f82011682018060405250810190610bb19190611f59565b6fffffffffffffffffffffffffffffffff81169b6bffffffffffffffffffffffff608083901c169b5094995092975090955090935090915050565b6040805160a081018252600080825260208201819052918101829052606081018290526080810182905290610c2285858561124e565b90506000816201000f604051602001610c45929190918252602082015260400190565b604080518083037fffffffffffffffffffffffffffffffffffffffffffffffffffffffffffffffe0018152908290528051602090910120600080547f02ce8af3000000000000000000000000000000000000000000000000000000008452600484018390529193509173ffffffffffffffffffffffffffffffffffffffff909116906302ce8af39060240160206040518083038186803b158015610ce857600080fd5b505afa158015610cfc573d6000803e3d6000fd5b505050506040513d601f19601f82011682018060405250810190610d209190611f59565b600080549192509073ffffffffffffffffffffffffffffffffffffffff166302ce8af3610d4e856001611f71565b6040518263ffffffff1660e01b8152600401610d6c91815260200190565b60206040518083038186803b158015610d8457600080fd5b505afa158015610d98573d6000803e3d6000fd5b505050506040513d601f19601f82011682018060405250810190610dbc9190611f59565b6fffffffffffffffffffffffffffffffff8084168752608093841c60208801528116604087015267ffffffffffffffff81841c16606087015260c01c91850191909152509195945050505050565b6000806000806000610e1d8a8a8a61124e565b6040805160608e901b7fffffffffffffffffffffffffffffffffffffffff000000000000000000000000166020808301919091526034820184905260028b810b60e890811b6054850152908b900b901b60578301528251603a818403018152605a83019093528251920191909120607a82018190526201000d609a83015291925060009060ba01604080518083037fffffffffffffffffffffffffffffffffffffffffffffffffffffffffffffffe0018152908290528051602090910120600080547f02ce8af3000000000000000000000000000000000000000000000000000000008452600484018390529193509173ffffffffffffffffffffffffffffffffffffffff909116906302ce8af39060240160206040518083038186803b158015610f4757600080fd5b505afa158015610f5b573d6000803e3d6000fd5b505050506040513d601f19601f82011682018060405250810190610f7f9190611f59565b6fffffffffffffffffffffffffffffffff81169f67ffffffffffffffff608083901c169f5063ffffffff60c083901c169e5060e09190911c15159c509a5050505050505050505050565b600080600080610fda89898961124e565b90506000610fe98288886112dc565b90506000816201000460405160200161100c929190918252602082015260400190565b604080518083037fffffffffffffffffffffffffffffffffffffffffffffffffffffffffffffffe0018152908290528051602090910120600080547f02ce8af3000000000000000000000000000000000000000000000000000000008452600484018390529193509173ffffffffffffffffffffffffffffffffffffffff909116906302ce8af39060240160206040518083038186803b1580156110af57600080fd5b505afa1580156110c3573d6000803e3d6000fd5b505050506040513d601f19601f820116820180604052508101906110e79190611f59565b73ffffffffffffffffffffffffffffffffffffffff81169d63ffffffff60a083901c169d5060c09190911c9b509950505050505050505050565b60405160009073ffffffffffffffffffffffffffffffffffffffff831690829061115d9083906201000c90602001918252602082015260400190565b604080518083037fffffffffffffffffffffffffffffffffffffffffffffffffffffffffffffffe0018152908290528051602090910120600080547f02ce8af3000000000000000000000000000000000000000000000000000000008452600484018390529193509173ffffffffffffffffffffffffffffffffffffffff909116906302ce8af39060240160206040518083038186803b15801561120057600080fd5b505afa158015611214573d6000803e3d6000fd5b505050506040513d601f19601f82011682018060405250810190610a359190611f59565b6000611245848484610bec565b51949350505050565b60008273ffffffffffffffffffffffffffffffffffffffff168473ffffffffffffffffffffffffffffffffffffffff161061128857600080fd5b6040805173ffffffffffffffffffffffffffffffffffffffff8087166020830152851691810191909152606081018390526080015b6040516020818303038152906040528051906020012090509392505050565b60008383836040516020016112bd93929190928352901515602083015260020b604082015260600190565b60008061131c83602001518460600151611884565b905061132c8184604001516118d9565b9392505050565b8351602080860151604080880151815180850189905273ffffffffffffffffffffffffffffffffffffffff8816818401529415156060860152600292830b608086015290910b60a084015263ffffffff841660c0808501919091528151808503909101815260e08401909152805191012061010082018190526201000561012083015260009182918291829061014001604080518083037fffffffffffffffffffffffffffffffffffffffffffffffffffffffffffffffe0018152908290528051602090910120600080547f02ce8af3000000000000000000000000000000000000000000000000000000008452600484018390529193509173ffffffffffffffffffffffffffffffffffffffff909116906302ce8af39060240160206040518083038186803b15801561146657600080fd5b505afa15801561147a573d6000803e3d6000fd5b505050506040513d601f19601f8201168201806040525081019061149e9190611f59565b6bffffffffffffffffffffffff81169b63ffffffff608083901c169b5060e09190911c9950975050505050505050565b6000620100026fffffffffffffffffffffffffffffffff83161080159061151657506f0ffff5433e2b3d8211706e6102aa94726fffffffffffffffffffffffffffffffff8316105b61151f57600080fd5b77ffffffffffffffffffffffffffffffff0000000000000000604083901b166fffffffffffffffffffffffffffffffff811160071b81811c67ffffffffffffffff811160061b90811c63ffffffff811160051b90811c61ffff811160041b90811c60ff8111600390811b91821c600f811160021b90811c918211600190811b92831c979088119617909417909217179091171717608081106115c957607f810383901c91506115d3565b80607f0383901b91505b908002607f81811c60ff83811c9190911c800280831c81831c1c800280841c81841c1c800280851c81851c1c800280861c81861c1c800280871c81871c1c800280881c81881c1c800280891c81891c1c8002808a1c818a1c1c8002808b1c818b1c1c8002808c1c818c1c1c8002808d1c818d1c1c8002808e1c9c81901c9c909c1c80029c8d901c9e9d7fffffffffffffffffffffffffffffffffffffffffffffffffffffffffffffff808f0160401b60c09190911c678000000000000000161760c19b909b1c674000000000000000169a909a1760c29990991c672000000000000000169890981760c39790971c671000000000000000169690961760c49590951c670800000000000000169490941760c59390931c670400000000000000169290921760c69190911c670200000000000000161760c79190911c670100000000000000161760c89190911c6680000000000000161760c99190911c6640000000000000161760ca9190911c6620000000000000161760cb9190911c6610000000000000161760cc9190911c6608000000000000161760cd9190911c66040000000000001617693627a301d71055774c8581027ffffffffffffffffffffffffffffffffffd709b7e5480fba5a50fed5e62ffc5568101608090811d906fdb2df09e81959a81455e260799a0632f8301901d600281810b9083900b1461181257886fffffffffffffffffffffffffffffffff166117ee826118fe565b6fffffffffffffffffffffffffffffffff16111561180c5781611814565b80611814565b815b9998505050505050505050565b6fffffffffffffffffffffffffffffffff80831667ffffffffffffffff83160260301c165b92915050565b806fffffffffffffffffffffffffffffffff811671ffffffffffffffffffffffffffffffffffff82161461187f57600080fd5b919050565b600066010000000000006fffffffffffffffffffffffffffffffff80851667ffffffffffffffff851683010290603082901c90811115610a35576fffffffffffffffffffffffffffffffff9350505050611846565b8082016fffffffffffffffffffffffffffffffff808416908216101561184657600080fd5b60007ffffffffffffffffffffffffffffffffffffffffffffffffffffffffffff5d892600283900b1280159061193b5750620cb14a600283900b13155b61194457600080fd5b6000808360020b12611959578260020b611961565b8260020b6000035b905060006001821661198457700100000000000000000000000000000000611996565b6ffffcb933bd6fad37aa2d162d1a5940015b70ffffffffffffffffffffffffffffffffff16905060028216156119ca576ffff97272373d413259a46990580e213a0260801c5b60048216156119e9576ffff2e50f5f656932ef12357cf3c7fdcc0260801c5b6008821615611a08576fffe5caca7e10e4e61c3624eaa0941cd00260801c5b6010821615611a27576fffcb9843d60f6159c9db58835c9266440260801c5b6020821615611a46576fff973b41fa98c081472e6896dfb254c00260801c5b6040821615611a65576fff2ea16466c96a3843ec78b326b528610260801c5b6080821615611a84576ffe5dee046a99a2a811c461f1969c30530260801c5b610100821615611aa4576ffcbe86c7900a88aedcffc83b479aa3a40260801c5b610200821615611ac4576ff987a7253ac413176f2b074cf7815e540260801c5b610400821615611ae4576ff3392b0822b70005940c7a398e4b70f30260801c5b610800821615611b04576fe7159475a2c29b7443b29c7fa6e889d90260801c5b611000821615611b24576fd097f3bdfd2022b8845ad8f792aa58250260801c5b612000821615611b44576fa9f746462d870fdf8a65dc1f90e061e50260801c5b614000821615611b64576f70d869a156d2a1b890bb3df62baf32f70260801c5b618000821615611b84576f31be135f97d08fd981231505542fcfa60260801c5b62010000821615611ba5576f09aa508b5b7a84e1c677de54f3e99bc90260801c5b62020000821615611bc5576e5d6af8dedb81196699c329225ee6040260801c5b62040000821615611be4576d2216e584f5fa1ea926041bedfe980260801c5b62080000821615611c01576b048a170391f7dc42444e8fa20260801c5b60008460020b1315611c6757807fffffffffffffffffffffffffffffffffffffffffffffffffffffffffffffffff81611c63577f4e487b7100000000000000000000000000000000000000000000000000000000600052601260045260246000fd5b0490505b68010000000000000000810615611c7f576001611c82565b60005b60ff16604082901c0192505050919050565b803573ffffffffffffffffffffffffffffffffffffffff8116811461187f57600080fd5b8035801515811461187f57600080fd5b8035600281900b811461187f57600080fd5b600060208284031215611ceb578081fd5b61132c82611c94565b60008060408385031215611d06578081fd5b611d0f83611c94565b9150611d1d60208401611c94565b90509250929050565b60008060008060808587031215611d3b578182fd5b611d4485611c94565b9350611d5260208601611c94565b9250611d6060408601611c94565b9396929550929360600135925050565b60008060008060008060c08789031215611d88578182fd5b611d9187611c94565b9550611d9f60208801611c94565b9450611dad60408801611c94565b935060608701359250611dc260808801611cc8565b9150611dd060a08801611cc8565b90509295509295509295565b600080600080600080600080610100898b031215611df8578182fd5b611e0189611c94565b9750611e0f60208a01611c94565b9650611e1d60408a01611c94565b955060608901359450608089013563ffffffff81168114611e3c578283fd5b9350611e4a60a08a01611cb8565b9250611e5860c08a01611cc8565b9150611e6660e08a01611cc8565b90509295985092959890939650565b600080600060608486031215611e89578283fd5b611e9284611c94565b9250611ea060208501611c94565b9150604084013590509250925092565b600080600080600060a08688031215611ec7578081fd5b611ed086611c94565b9450611ede60208701611c94565b935060408601359250611ef360608701611cb8565b9150611f0160808701611cc8565b90509295509295909350565b60008060008060808587031215611f22578384fd5b611f2b85611c94565b9350611f3960208601611c94565b925060408501359150611f4e60608601611cc8565b905092959194509250565b600060208284031215611f6a578081fd5b5051919050565b60008219821115611f8457611f84611fb2565b500190565b600067ffffffffffffffff83811690831681811015611faa57611faa611fb2565b039392505050565b7f4e487b7100000000000000000000000000000000000000000000000000000000600052601160045260246000fdfea2646970667358221220048f3bfc7508c7ced52c1316018a16414a3c943b1e1d59b930caaca3e2c5a27564736f6c63430008040033",
  "linkReferences": {},
  "deployedLinkReferences": {}
}